:020000040000FA
:10800000D0380100CD8200003BA5000005A2000091
:1080100039A500002785000039A9000000000000F4
:108020000000000000000000000000000D820000C1
:1080300011860000000000006982000045A50000D4
:10804000E7820000E7820000E7820000E78200008C
:10805000E7820000E7820000E7820000E78200007C
:10806000E7820000E7820000E7820000E78200006C
:1080700059850000E7820000E7820000E7820000E7
:10808000E7820000E7820000E782000035850000FB
:1080900029850000E7820000E7820000E7820000F7
:1080A00015A60000E7820000E7820000E7820000DA
:1080B000E7820000E7820000E7820000E78200001C
:1080C000E7820000E7820000E7820000E78200000C
:1080D000E782000015A90000E782000021A9000046
:1080E000E7820000E7820000E7820000E7820000EC
:1080F000E7820000E7820000E7820000E7820000DC
:10810000E7820000E7820000E7820000E7820000CB
:10811000E7820000E7820000E7820000E7820000BB
:10812000E78200006585000071850000E78200009D
:10813000E7820000E7820000E78200004D85000032
:1081400041850000E7820000E7820000E78200002E
:10815000E78200007D850000898500002DA90000D0
:10816000E7820000E7820000E7820000E78200006B
:10817000E7820000E7820000E782000000000000C4
:10818000E7820000E782000000F002F800F02EF81D
:108190000AA090E8000C82448344AAF10107DA4562
:1081A00001D100F023F8AFF2090EBAE80F0013F086
:1081B000010F18BFFB1A43F001031847E03200001B
:1081C000F03200000023002400250026103A28BFCA
:1081D00078C1FBD8520728BF30C148BF0B60704739
:1081E0001FB503F031F91FBD10B510BD00F061F9E6
:1081F0001146FFF7F5FF02F0B0FB00F07FF903B482
:10820000FFF7F2FF03BC00F087F900002C4B196860
:108210000868B0E8F04F80F30988BFF36F8F4FF024
:10822000000080F3118870470000000008480068D3
:10823000006880F308884FF0000080F3148862B66D
:1082400061B6BFF34F8FBFF36F8F00DF00BF00BF7A
:1082500008ED00E0DFF80C00016841F470010160F6
:10826000704700BF88ED00E0EFF30980BFF36F8F28
:10827000134B1A681EF0100F08BF20ED108A20E97A
:10828000F04F106009B44FF0500080F31188BFF335
:108290004F8FBFF36F8F02F00FFF4FF0000080F39E
:1082A000118809BC19680868B0E8F04F1EF0100F7B
:1082B00008BFB0EC108A80F30988BFF36F8F704756
:1082C000B8B40000EFF3058070470000094880470C
:1082D00009480047FEE7FEE7FEE7FEE7FEE7FEE7A8
:1082E000FEE7FEE7FEE7FEE704480549054A064BC0
:1082F0007047000005A6000089810000D0F800004A
:10830000D0380100D0180100D018010053EA020C47
:1083100000F069802DE9F04B4FF00006002B1FBFE5
:10832000B3FA83F503FA05F424FA05F65E4012BFAA
:108330001643B2FA82F502FA05F4C5F120051EBF14
:1083400022FA05FC44EA0C04203556EA044C4FEAB4
:10835000144418BF641C4FF000084FF0000990420D
:1083600071EB030C39D3002919BFB1FA81F701FA77
:1083700007F6B0FA80F700FA07F6C7F120071EBF2C
:1083800020FA07FC46EA0C062037B6FBF4FCA7EB04
:108390000507103F07F01F0BCBF120060CFA0BFB73
:1083A0002CFA06F644BFB3460026202FA4BF5E4633
:1083B0004FF0000B5BEA060C08BF4FF0010B19EB06
:1083C0000B09ABFB027C48EB0608C01B06FB02CC8A
:1083D0000BFB03CC71EB0C01C1E70B460246414697
:1083E0004846BDE8F08B13B54FF000004FF0000198
:1083F000AFF30080BDE81C40704710B5203AC0F0D4
:108400000B80B1E81850203AA0E81850B1E8185095
:10841000A0E81850BFF4F5AF5FEA027C24BFB1E8D2
:108420001850A0E8185044BF18C918C0BDE8104043
:108430005FEA827C24BF51F8043B40F8043B08BF4C
:108440007047D20728BF31F8023B48BF11F8012B13
:1084500028BF20F8023B48BF00F8012B70474FF0BF
:10846000000200B5134694469646203922BFA0E884
:108470000C50A0E80C50B1F12001BFF4F7AF090790
:1084800028BFA0E80C5048BF0CC05DF804EB890081
:1084900028BF40F8042B08BF704748BF20F8022BC4
:1084A00011F0804F18BF00F8012B704770477047DC
:1084B0007047754600F02CF8AE46050069465346F5
:1084C00020F00700854618B020B5FFF70DFFBDE886
:1084D00020404FF000064FF000074FF000084FF02B
:1084E000000B21F00701AC46ACE8C009ACE8C009BC
:1084F000ACE8C009ACE8C0098D46704710B5044629
:10850000AFF300802046BDE81040FFF778BE0000C2
:108510000048704770F8000001491820ABBEFEE724
:10852000260002007047FEE7014800F075B8000021
:10853000B8F40000014800F06FB80000B8F4000083
:10854000014800F069B80000E0F40000014800F0C4
:1085500063B80000E0F40000014800F0DFBA00005A
:1085600050F70000014800F0D9BA0000B0F7000051
:10857000014800F0D3BA000090F60000014800F076
:10858000CDBA000010F80000014800F0C7BA0000A2
:10859000F0F6000001681823CAB2103AB2FBF3F2F9
:1085A000054B6FF30901032A9B5CC36500D9091DC4
:1085B000816508467047000052B4000010B50146BE
:1085C00000208B698A6A4FF0C07453B1B3F5005F25
:1085D00015D072B1012A0CD0022A0AD0032A09D17F
:1085E00004E01AB1012A06D0022A03D1C96AC901DE
:1085F00000D5012010BDC96AA142FAD010BD002AE1
:10860000F7D0012AF2D0022AF3D0032AF3D010BD0A
:10861000704772B6FEE770472DE9F05F05460068C7
:1086200000244669D0F804908768D0F80CB0D0F8E0
:1086300010A0D0F81880F10748D0F90714D0012114
:108640008160B80703D5284600F006FA0CE07807E9
:1086500002D54FF4006407E0380702D54FF4805488
:1086600002E0284600F0F7F9F80516D529684FF41E
:1086700080708860B80503D5284600F0EFF90CE05B
:10868000780502D544F4005407E0380502D544F4D7
:10869000804402E0284600F0E0F9F80316D5296886
:1086A0004FF480308860B80303D5284600F0D8F92D
:1086B0000CE0780302D544F4004407E0380302D507
:1086C00044F4803402E0284600F0C9F9300707D5A9
:1086D0005FEACB6004D52968102044F40074C860B8
:1086E00070074FF0080707D55FEA0B7004D52868BC
:1086F000C760284600F0AAF9B00706D52868C06808
:10870000800702D0284600F0A2F9700607D55FEA7C
:10871000CA6004D52968102044F480640861B0065A
:1087200007D55FEA0A7004D528680761284600F07B
:108730008FF9F00606D528680069800702D0284620
:1087400000F087F9B00308D55FEAC96005D529684C
:1087500010204860284600F07DF9F00307D55FEA55
:10876000097004D528684760284600F07AF930047B
:1087700046D55FEA497040D5F00504D55FEAC87078
:1087800001D044F00104B00504D55FEA887001D53A
:1087900044F00204700504D55FEA487001D544F046
:1087A0000404300529D518F0700F26D008F07000A9
:1087B000402815D006DC102809D020280AD03028FF
:1087C00016D10AE050280ED0602811D10EE044F0F6
:1087D00008040DE044F010040AE044F0200407E02F
:1087E00044F0400404E044F0800401E044F4807468
:1087F0002868816921F0700181612968042048603E
:10880000002C05D0686A204368622846FFF703FF02
:10881000BDE8F09F70B5040003D094F8200010B1BB
:1088200004E0012070BD204600F082F82068016855
:1088300041F00101016000F0A9FB0546052604E0B6
:1088400000F0A4FB401B0A2811D820684068C0072C
:10885000F6D02068016821F00201016000F096FB6B
:1088600005460BE000F092FB401B0A2806D9606A1F
:1088700040F40030606284F82060D2E720684068ED
:108880008007EFD4207E0128206801683DD021F0C8
:1088900080010160607E01282068016838D021F0E5
:1088A00040010160A07E01282068016833D021F0DA
:1088B00020010160E07E0128206801682ED041F08F
:1088C00010010160207F01282068016829D021F073
:1088D00008010160607F01282068016824D021F030
:1088E00004010160D4E902010843D4E904121143F0
:1088F00008436168491E08432168C861002060621E
:10890000012084F82000002070BD41F08001C0E704
:1089100041F04001C5E741F02001CAE721F0100114
:10892000CFE741F00801D4E741F00401D9E70000A6
:10893000F0B587B0044614216846FFF790FD3E4B22
:108940003E48DFF8F0E01968D4F800C03B4A032540
:108950000226092710300024491CF4452AD1196049
:10896000012907D1016841F000710160006800F041
:1089700000700590106840F0080010601068CDE9A4
:10898000005600F00800CDE9047069462C48CDE996
:10899000024500F0FDF900220521132000F088FCBB
:1089A000132000F077FC00220521142000F080FC49
:1089B00014203AE0DFF88CE0F44538D1D0F800C05C
:1089C0004CF0806CC0F800C0D0F800C001290CF059
:1089D000806CCDF814C0196007D1016841F00071B6
:1089E0000160006800F000700590106840F002001F
:1089F0001060106802AB00F0020005906020CDE925
:108A0000000683E8B00069460F4800F0C1F9002273
:108A100005213F2000F04CFC3F2000F03BFC0022F1
:108A20000521402000F044FC402000F033FC07B05A
:108A3000F0BD00000064004028B50000303802405E
:108A4000000C02400068004000040240704770477C
:108A5000704770477047704770477047704770475E
:108A6000704770472DE9F0410446876D00F08EFA9B
:108A7000064694F835000025022806D0802060655F
:108A800084F834500120BDE8F0812068016821F0AD
:108A9000160101602068416921F080014161206C6C
:108AA00008B9A06C20B12068016821F008010160BC
:108AB0002068016821F0010101600CE000F066FA15
:108AC000801B052807D920206065032084F8350025
:108AD00084F83450D7E720680068C007EED194F8D6
:108AE0005C103F208840B860012084F8350084F88D
:108AF00034500020C7E790F83510022903D08021B8
:108B0000416501207047052180F835100068016833
:108B100021F0010101600020704700002DE9F843B9
:108B200004464FF00009CDF8009063484FF4165109
:108B3000A56D0068B0FBF1F72E6894F85C10082072
:108B400000FA01F131420FD021680A6852070BD5B3
:108B50000A6822F004020A6094F85C108840A86059
:108B6000606D40F00100606594F85C104FF0010802
:108B700008FA01F0304208D021684969090604D595
:108B8000A860606D40F00200606594F85C100420FD
:108B90008840304208D021680968890704D5A86058
:108BA000606D40F00400606594F85C10102088400F
:108BB000304218D021680968090714D5A8602068D8
:108BC0000168490304D50068000308D5A16C07E0DB
:108BD0000168C90503D4016821F008010160216C16
:108BE00009B12046884794F85C1020208840304224
:108BF00031D021680968C9062DD5A86094F83500E0
:108C000005282068016806D0490347D5006800039D
:108C10001DD4616C1CE021F01601016020684169DF
:108C200021F080014161206C08B9A06C20B120685E
:108C3000016821F00801016094F85C103F20884031
:108C4000A86084F8358084F83490216D1FE0E16BD2
:108C500009B120468847606D00282BD0606DC007A1
:108C600014D0052084F835002068016821F0010146
:108C700001600098401C0090B84203D8206800684A
:108C8000C007F6D184F8358084F83490E16C00296F
:108C900010D001B02046BDE8F04308470168C9057F
:108CA000D5D4016821F01001016084F8358084F882
:108CB0003490CCE7BDE8F88324B500002DE9F041FD
:108CC000044600F063F906465CB1022084F83500E2
:108CD000002584F834502068016821F0010101600A
:108CE0000DE00120BDE8F08100F050F9801B05285F
:108CF00005D920206065032084F83500F2E720685C
:108D00000068C007F0D12268116820480140D4E90A
:108D100001031843D4E90336334318436369184306
:108D2000A3691843E3691843236A18430843616A37
:108D3000042903D1D4E90B131943084310602068B8
:108D40004069666A20F0070130460E430127042877
:108D50000CD1A06A0643E06A40B12046FFF72EFC22
:108D600020B14020606584F83570BAE7206846611C
:108D70002046FFF70FFC94F85C203F219140816072
:108D8000656584F835700020ACE700003F8010F086
:108D90002DE9F84FDFF8BCA10022012503264FF092
:108DA0000F090AF1040BAAF1040E00BF0B6805FAC3
:108DB00002F42340A34270D10F7907F00307012F7B
:108DC00001D0022F16D187684FEA420806FA08FC44
:108DD00027EA0C07D1F80CC00CFA08FC4CEA070C87
:108DE000C0F808C04768A7430C79C4F30014944046
:108DF0003C4344600C79E443A4070AD0C4684FEABA
:108E0000420C06FA0CF7BC438F6807FA0CF72743AD
:108E1000C7600C7904F00304022C12D1D40800EBD3
:108E2000840CDCF820405707FF0E09FA07F824EA03
:108E30000804D1F8108008FA07F848EA0408CCF8CA
:108E4000208004684FEA420C06FA0CF7BC430F7905
:108E500007F0030707FA0CF7274307604C6814F480
:108E6000403F70D03C4C276847F480472760246817
:108E700022F0030704F480440094384C07EB040C00
:108E8000DCF8084897074FEA177809FA08F7BC4357
:108E9000334FB84202D1002724E054E0314FB842AA
:108EA00001D101271EE0304FB84201D1022719E05D
:108EB0002E4FB84201D1032714E02D4FB84201D103
:108EC00004270FE02B4FB84201D105270AE02A4FB3
:108ED000B84201D1062705E0284FB84201D1072743
:108EE00000E0082707FA08F72743CCF80878DAF8F3
:108EF00000405746D1F804C09C435FEACC2C00D513
:108F00001C433C60DBF800405F46D1F804C09C4342
:108F10005FEA8C2C00D51C433C60DEF800407746AD
:108F2000D1F804C09C435FEA8C3C00D51C433C60F4
:108F3000084F083F3C68D1F804C09C435FEACC3C32
:108F400000D51C433C60521C102AFFF42FAFBDE833
:108F5000F88F0000083C01404438024000300140D6
:108F6000000002400004024000080240000C0240E1
:108F7000001002400014024000180240001C024091
:108F80000AB1816170470904FBE70000014880686D
:108F900070470000ACB4000070B5040025D094F810
:108FA0003D00002520B984F83C50204600F0B8F878
:108FB000242084F83D002068016821F0010101604F
:108FC0002068016841F4004101602068016821F4D3
:108FD0000041016000F058FA4D4A6168914201D8A1
:108FE0004C4900E04C49884201D2012070BD4B49F8
:108FF0002368B0FBF1F15E6826F03F060E435E6029
:109000006368934206D94FF4967359434FF47A73C9
:10901000B1FBF3F12368491C1E6A26F03F06314379
:1090200019626168914210D84900401EB0FBF1F20C
:10903000521CC2F30B02042A01D2042022E0B0FB2E
:10904000F1F0401CC0F30B001CE0A268F2B301EB8E
:10905000C10303EB0116431EB3FBF6F35B1C43F4A1
:1090600080431B0549D092B301EBC10202EB011111
:10907000401EB0FBF1F0401CC0F30B0040F48040F8
:1090800040F400402168CA694CF6FF739A431043CC
:10909000C861D4E9071001432068026822F0C002C9
:1090A00011430160D4E9030101432068826848F25A
:1090B000FF339A4311438160D4E9050108432168D5
:1090C000CA6822F0FF021043C86001E00EE016E01B
:1090D0002068016841F0010101602564202084F8C6
:1090E0003D00256384F83E50002070BD01EB410631
:1090F000431EB3FBF6F35B1CB3E70120C2E701EBB1
:109100004101401EB0FBF1F0401CC0F30B00B7E77B
:10911000A086010080841E0000093D0040420F002F
:1091200010B586B0044614216846FFF798F9144933
:109130002068884221D113480021026842F00202CF
:109140000260006800F0020005904FF4407000904B
:109150001220CDE901010320039004200490694608
:109160000948FFF715FE07481030016841F4001167
:109170000160006800F40010059006B010BD00000A
:109180000054004030380240000402400248816828
:109190000278114481607047ACB400000B4810B5F0
:1091A000016841F400710160016841F4806101606F
:1091B000016841F480710160032000F099F80F20EC
:1091C00000F006F800F04AF8002010BD003C024014
:1091D00030B505461C4887B00024016841F4803151
:1091E0000160006806A900F48030009001A800F03A
:1091F0002BF900F059F915494000B0FBF1F1154881
:10920000134A491E026040F2E732C0E90324C0E974
:109210000114846100F016FC040012D10D4800F026
:109220003FFC04000DD1182000F034F8102D07D2B7
:1092300000222946182000F03BF80748056000E0AE
:10924000012407B0204630BD4438024040420F00A0
:109250000040014070F40000B0B400000C4882B03F
:10926000016841F480410160006800F48040009092
:109270000748001F016841F080510160006800222A
:1092800000F0805000900F21901E02B000F010B846
:1092900044380240002809DB00F01F020121914000
:1092A0004009800000F1E020C0F800117047000084
:1092B000F0B40E4B1B680C46C3F30223C3F1070541
:1092C000042D00D90425191D072901D2002300E02F
:1092D000DB1E012606FA05F1491E214099409E40F9
:1092E000761E16403143F0BC01F027BB0CED00E0C8
:1092F000064900F0070208684FF6FF03184040EAED
:109300000220034A10430860704700000CED00E0A3
:109310000000FA052DE9F0470E46050065D0DFF89C
:109320001481D8F80000F7B200F00700B04207D26D
:1093300088F80070D8F8000000F00700B04254D15F
:1093400028683D4C810712D5400703D5206840F4BA
:10935000E05020602878000703D5206840F4604082
:1093600020602068A96820F0F00008432060287879
:10937000C0072DD0304968680839012812D002286A
:1093800013D0032811D00968890700292DDA216834
:1093900021F0030101432160FFF7F8FD814641F20E
:1093A000883A0EE009688903EFE709688901ECE76C
:1093B000FFF7ECFDA0EB0901514502D90320BDE800
:1093C000F0872068696800F00C00B0EB810FEFD1E6
:1093D000D8F80010404601F00701B14207D90770E4
:1093E000006800F00700B04201D00120E7E72878CC
:1093F000400705D52068E96820F4E0500843206064
:109400002878000706D52068296920F4604040EAE2
:10941000C100206000F058F82168084AC1F3031128
:10942000515CC8400649086006480068FFF7D0FE56
:109430000020C4E7003C02400838024078B4000035
:1094400024B50000B0B400000F2202600C4A13687B
:1094500003F003034360136803F0F00383601368B1
:1094600003F4E053C36012684FF4E05303EAD202FE
:1094700002610448006800F00700086070470000BF
:1094800008380240003C0240044805490068096869
:10949000044AC1F38221515CC840704724B50000E2
:1094A0000838024088B4000004480549006809688B
:1094B000044AC1F34231515CC840704724B50000F2
:1094C0000838024088B40000154810B5006810F054
:1094D0000C02144813D01449042A0FD0082A0ED1C4
:1094E0000F4C241F2268236802F03F025B0207D55D
:1094F0002068C0F38810A0FB010106E0084610BDFB
:109500002168C1F38811A1FB00010023FEF7FEFED4
:109510002168C1F30141491C4900B0FBF1F010BDC5
:10952000083802400024F400001BB7002DE9F84F72
:1095300004006ED02078DFF84C93C007A9F1040531
:109540004AD009F104000168C1F38101012908D062
:109550000068C0F3810002280AD1D9F80000400257
:1095600006D52868800337D560680028E1D033E04D
:109570006068B0F5803F10D0B0F5A02F286810D0FB
:1095800020F480302860286820F4802028606068FB
:10959000A8B1FFF7FBFC06460DE0286840F48030D8
:1095A000F4E740F480202860F7E700BFFFF7EEFC07
:1095B000801B642873D828688003F7D50CE0FFF778
:1095C000E5FC064605E000BFFFF7E0FC801B6428D1
:1095D000F0D828688003F7D42078DFF8AC828007C1
:1095E0004FF0000A3ED5A748001D016811F00C0F8E
:1095F00008D00068C0F3810002280BD1D9F8000020
:10960000400207D42868800716D5E068012800D1F9
:1096100012E033E1E068B8B10120C8F80000FFF7BC
:10962000B5FC064605E000BFFFF7B0FC801B022832
:10963000C0D828688007F7D52868216920F0F8008D
:1096400040EAC10028600DE0C8F800A0FFF79EFCCA
:10965000064604E0FFF79AFC801B02281FD8286802
:109660008007F7D42078000722D5864F87486169A4
:10967000703771B101210160FFF788FC064604E0F4
:10968000FFF784FC801B022809D838688007F7D5CB
:109690000EE0C0F800A0FFF779FC064605E082E086
:1096A000FFF774FC801B02287DD838688007F7D448
:1096B0002078400768D5DFF8CCB100270BF13C0BD0
:1096C000DBF80000C0000BD4DBF8001041F0805143
:1096D000CBF80010DBF80000012700F0805000906C
:1096E0006B4E3068C00510D4306840F48070306034
:1096F000FFF74CFC009005E0FFF748FC0099401A8A
:10970000022850D83068C005F6D55E4EA0686C3689
:1097100001280FD00528306810D020F001003060FB
:10972000306820F004003060A068B8B1FFF72EFC6C
:1097300000900FE0306840F00100F4E740F00400D2
:109740003060F7E7FFF722FC0099411A41F28830B8
:10975000814266D830688007F4D50EE0FFF716FC2A
:10976000009007E0FFF712FC0099411A41F288309F
:10977000814256D830688007F4D42FB1DBF800104E
:1097800021F08051CBF80010A069C8B33D49091DF4
:109790000968C1F3810102294AD00228504607D046
:1097A000C8F8600000E03CE0FFF7F0FB04463BE057
:1097B0004746C8F86000FFF7E9FB064605E000BF32
:1097C000FFF7E4FB801B02282BD828688001F7D420
:1097D000D4E907010843A16A2E4A490802EB014176
:1097E000626A41EA8211084394F82C1040EA016150
:1097F000C9F8001001203866FFF7C8FB044606E0F0
:109800003EE000BFFFF7C2FB001B022809D8286812
:109810008001F7D534E000BFFFF7B8FB001B02283A
:1098200002D90320BDE8F88F28688001F4D427E02E
:109830000128F7D0D9F80000E26900F480019142D4
:109840001CD1226A00F03F01914217D147F6C07146
:10985000626A0140B1EB821F10D1A26A4FF0FF3360
:1098600000F4403103EB5202B1EB024F06D194F801
:109870002C1000F07060B0EB016F01D00120D1E737
:109880000020CFE70438024000004742800E4742E4
:10989000007000400000FFFF70B5040003D0607945
:1098A000002510B105E0012070BD2571204600F0B3
:1098B0000DF8022060712068016841F00401016028
:1098C00001206071A560002070BD000008B500682F
:1098D0000649884208D10648016841F0400101600C
:1098E000006800F04000009008BD0000000806502D
:1098F0003438024070B5040009D0606A002540B1D8
:1099000025616561A56294F8510040B10CE0012029
:1099100070BD6068B0F5827FF4D0E561F2E784F84D
:109920005050204600F044F8022084F8510020688E
:10993000016821F040010160A088218900F4827053
:1099400001F404410843A18901F400610843217C2A
:1099500001F002010843217D01F001010843218B40
:1099600001F400710843217F01F03801084394F8A5
:10997000201001F080010843218D01F400510843BB
:1099800021680860A069042101EA104094F82410BD
:1099900001F010010843216848602068C16921F482
:1099A0000061C1616565012084F85100002070BD2F
:1099B000F0B587B0044614216846FEF750FD1C49F7
:1099C0002068884232D11B480024016841F480514C
:1099D0000160006800F48050059016481438016852
:1099E00041F002010160016801F002010591016886
:1099F00041F0010101600068022500F001000590BE
:109A00001820CDE9000502AA0326052782E8D00028
:109A100069460948FFF7BCF98020CDE9000502AA94
:109A2000694682E8D0000548FFF7B2F907B0F0BDFB
:109A3000003001404438024000040240000002406F
:109A40007047704710B5040003D094F83D0010B182
:109A500007E0012010BD002084F83C00204600F003
:109A60001EF8022084F83D00211D206800F0D8FD7A
:109A7000012084F8460084F83E0084F83F0084F812
:109A8000400084F8410084F8420084F8430084F8E0
:109A9000440084F8450084F83D00002010BD704764
:109AA00090F83D10012901D001207047022180F873
:109AB0003D100168CA6842F00102CA60006811499D
:109AC000884214D0B0F1804F11D00F4988420ED097
:109AD0000E4988420BD00E49884208D00D49884271
:109AE00005D00D49884202D00C49884204D18168D2
:109AF00001F00701062903D0016841F0010101606E
:109B000000207047000001400004004000080040B1
:109B1000000C0040000401400040014000180040DB
:109B2000704770B50446006801694FF00005C943ED
:109B3000890715D4C168C943890711D4E91E016199
:109B400001202077206880698007204602D0FFF737
:109B5000E7FF04E000F098F8204600F096F825773B
:109B600020680169C943490717D4C168C943490737
:109B700013D46FF00401016102202077206880690E
:109B800010F4407F204602D0FFF7CAFF04E000F047
:109B90007BF8204600F079F8257720680169C943F1
:109BA000090716D4C168C943090712D46FF0080128
:109BB0000161042020772068C0698007204602D018
:109BC000FFF7AEFF04E000F05FF8204600F05DF81C
:109BD000257720680169C943C90617D4C168C943FC
:109BE000C90613D46FF010010161082020772068A6
:109BF000C06910F4407F204602D0FFF791FF04E0D7
:109C000000F042F8204600F040F82577206801690E
:109C1000C943C90708D1C168C943C90704D1891E0E
:109C20000161204600F032F820680169C943090645
:109C300009D4C168C943090605D46FF080010161E8
:109C40002046FFF7FDFE20680169C943490609D493
:109C5000C168C943490605D46FF04001016120463F
:109C600000F01EF820680169C94389060BD4C16859
:109C7000C943890607D46FF0200101612046BDE881
:109C80007040FFF7DEBE70BD704770470068034943
:109C9000884201D1FFF77ABA7047000000400140C6
:109CA0007047704770470000F8B5016804460868BF
:109CB000CA684B6910F00F0F4FF0000559D003F040
:109CC000010602F49077374365D0C10705D0D1056E
:109CD00003D5216C41F001012164410705D5D90765
:109CE00003D0216C41F002012164810705D5D90719
:109CF00003D0216C41F004012164010707D502F073
:109D00002001314303D0216C41F008012164216C12
:109D100000293AD0800604D5900602D5204600F0EE
:109D200012FD20684069216CC0F38010090700D43F
:109D300060B3204600F0E0FC20684069400621D571
:109D40002068143050E8001F21F0400140E8001264
:109D5000002AF5D1A06BA8B16C490165A06BFEF794
:109D6000CAFE002811D0A06B016D01B0BDE8F04023
:109D7000084783060FD593060DD52046BDE8F84069
:109D800000F0E1BC2046FFF78DFFF8BD2046FFF74D
:109D900089FF2564F8BD266B2023012E79D1C606E4
:109DA00077D5D60675D5086848680090486940069A
:109DB00040D5A16B086840680004000CEAD0A28D71
:109DC0008242E7D9E085C869B0F5807F2DD0206850
:109DD0000C3050E8001F21F4807140E80012002A86
:109DE000F5D12068143050E8001F21F0010140E84F
:109DF0000012002AF5D12068143050E8001F21F02D
:109E0000400140E80012002AF5D184F83E30256375
:109E100020680C3050E8001F21F0100140E80012CB
:109E2000002AF5D1A06BFEF71DFEA08DE18D401A32
:109E300081B229E0A08DE18D401A81B2E08D002829
:109E4000A8D00029A6D020680C3050E8002F22F4BA
:109E5000907240E80026002EF5D12068143050E8BA
:109E6000002F22F0010240E80026002EF5D184F8F0
:109E70003E30256320680C3050E8002F22F010029D
:109E800040E80023002BF5D12046FFF70AFFF8BD7C
:109E9000FFE705062BD5150629D594F83D002128A6
:109EA000F5D1A068B0F5805F01D12069B0B1206A1A
:109EB000411C2162216800784860E08C401E00044B
:109EC000000CE084E3D12068C16821F08001C1600A
:109ED0002068C16841F04001C160D8E7206A00886D
:109EE000C0F308004860206A801C2062E5E7400655
:109EF000CDD55006CBD5CA68204622F04002CA60B4
:109F000084F83D3000F07DF9C1E70000E9A60000CB
:109F100070B5040004D094F83D00002510B106E0AF
:109F2000012070BD84F83C50204600F023F8242026
:109F300084F83D002068C16821F40051C1602046CA
:109F400000F062FC2068016921F490410161206801
:109F5000416921F02A0141612068C16841F4005142
:109F6000C1602564202084F83D0084F83E00002074
:109F700070BD00002DE9F04F87B0054614216846FA
:109F8000FEF76DFA9348DFF848821438D5F800C020
:109F9000904B022103228715002406154FF0070974
:109FA0004FF0006BC4456BD1D3F800C04CF0100CDF
:109FB000C3F800C01B6803F010030593036843F067
:109FC00002030360036803F002030593036843F090
:109FD0000103036000688A4600F0010005908020BC
:109FE000CDE9000A0DF1080C90468CE81003694693
:109FF0007948FEF7CDFE7010CDE9000A0DF1080A90
:10A0000069468AE810037548FEF7C2FEDFF8D4817E
:10A0100073494046C8F80010C0E901B4C0E90346DE
:10A02000C8F81440C0E90647C8F82040D946C8F827
:10A030002440FEF743FE08B1FEF7EBFA694F68488B
:10A04000C5F8388060377830C8F83850E7E802093A
:10A05000402051C7634847F814496030BC61FC6137
:10A060003C627C62FEF72AFE08B1FEF7D2FA6F630B
:10A07000002205212520BD63FFF71AF9252044E0C1
:10A08000DFF86481C44545D1524B1B1FD3F800C093
:10A090004CF4802CC3F800C01B6803F480230593A4
:10A0A000036843F004030360006800F004000590B7
:10A0B0004FF440608DE81300CDE9032969464B4811
:10A0C000FEF766FEDFF81C81494908F1C0084046EA
:10A0D000C8F80010C0E901B4C0E90346C8F814404C
:10A0E000C0E90647C8F82040C8F82440FEF7E6FD5E
:10A0F00008B1FEF78EFAC5F8388000220521272026
:10A10000C8F83850FFF7D4F82720FFF7C3F807B096
:10A11000BDE8F08FDFF8DC80C445F8D1D3F800C08B
:10A120004CF0200CC3F800C01B6803F0200305931B
:10A13000036843F040030360006800F040000590AE
:10A140004FF484408DE813000820CDE903206946D0
:10A150002948FEF71DFE2249DFF8A0801839404645
:10A160004FF02069C8F80010C0E90194C0E9034627
:10A17000C8F81440C0E90647C8F82040C8F8244091
:10A18000FEF79CFD08B1FEF744FA1C4F1448C5F8D1
:10A19000388060376030C8F83850E7E8020940205E
:10A1A00051C7164847F814496030BC61FC613C62F5
:10A1B0007C62FEF783FD08B1FEF72BFA6F63002285
:10A1C00005214720BD63FFF773F847209DE7000096
:10A1D00000100140443802400004024000000240E8
:10A1E0004064024090F60000004800400008024031
:10A1F000286002400014014000180240B0F700003F
:10A2000070477047FEE70000104810B50E49016026
:10A210000321416000214FF410228160C0E9031244
:10A220004FF4001242610176012242768276C276B4
:10A2300001774277FEF7EEFA002803D0BDE8104020
:10A24000FEF7E7B910BD000000640040B8F400005C
:10A25000104810B50E4901600321416000214FF400
:10A2600010228160C0E903124FF4001242610176AE
:10A27000012242768276C27601774277FEF7CAFAE9
:10A28000002803D0BDE81040FEF7C3B910BD0000A0
:10A2900000680040E0F400001D4808B5016841F482
:10A2A00000110160016801F400110091016841F49E
:10A2B000800101600068002200F480000090052108
:10A2C0000C20FEF7F5FF0C20FEF7E4FF002205212D
:10A2D0003920FEF7EDFF3920FEF7DCFF00220521D3
:10A2E0003A20FEF7E5FF3A20FEF7D4FF00220521D1
:10A2F0004520FEF7DDFF4520FEF7CCFF00220521BB
:10A300004620FEF7D5FFBDE808404620FEF7C2BF55
:10A310003038024000B587B01C2206496846FEF777
:10A320006CF80021684600F047FB0349086007B05D
:10A3300000BD00005CB4000020B5000070B586B020
:10A3400014216846FEF78BF822480024016841F08A
:10A3500002010160016801F002010591016841F00C
:10A3600040010160016801F040010591016841F080
:10A3700001010160016801F001010591016841F0EE
:10A3800008010160016801F008010591016841F0D0
:10A3900004010160016801F004010591016841F0C8
:10A3A0008001016000680C4E00F080004FF4E05521
:10A3B0000590002229463046FEF7E2FD0120009577
:10A3C000CDE90104694630460394FEF7E1FC06B08E
:10A3D00070BD000030380240001C02400D4810B52E
:10A3E0000B4901600C49416000214FF480428160BB
:10A3F000C0E9031241618161C1610162FEF7CCFDD8
:10A40000002803D0BDE81040FEF703B910BD0000DE
:10A410000054004008F50000801A0600074910B5F6
:10A42000054808600846FFF737FA002803D0BDE862
:10A430001040FEF7EEB810BD000806505CF50000B5
:10A44000104810B50E4901604FF48271416000213F
:10A450008160C1604FF400720161C0E905123022D1
:10A46000C0E90721416281620A21C162FFF742FA15
:10A47000002803D0BDE81040FEF7CBB810BD0000A7
:10A48000003001406CF500000C4810B50A4901602D
:10A490004FF4E1314160002181600C22C160C0E9CC
:10A4A00004128161C161FFF733FD002803D0BDE8CC
:10A4B0001040FEF7AEB810BD00100140C4F500001A
:10A4C0000D4810B50B4901600C49416000214FF463
:10A4D00080628160C0E903120C22C0E90521C161DC
:10A4E000FFF716FD002803D0BDE81040FEF791B835
:10A4F00010BD00000048004008F60000A0860100E2
:10A500000C4810B50A4901604FF4E1314160002167
:10A5100081600C22C160C0E904128161C161FFF752
:10A52000F7FC002803D0BDE81040FEF772B810BD5C
:10A53000001401404CF60000FEE7FEE7012000F0A9
:10A540002FFAFBE710B5502080F31188BFF34F8F2F
:10A55000BFF36F8F00F0B0FE18B104494FF0805088
:10A560000860002080F3118810BD000004ED00E0B9
:10A5700030B593B030216846FDF771FF14210CA867
:10A58000FDF76DFF1D480025016841F08051016015
:10A59000006800F0805011901948016841F4804132
:10A5A00001600068022400F48040119001200090B6
:10A5B000000401908001CDE9064006200890A82003
:10A5C000CDE9090407200B906846FEF7AFFF08B1FC
:10A5D00072B6FEE70CA90F2081E831004FF4A050BD
:10A5E0000F904FF48050109005210CA8FEF792FEBA
:10A5F000002801D072B6FEE713B030BD40380240EB
:10A60000007000400248016841F470010160704729
:10A6100088ED00E00148FFF784BA000070F4000004
:10A62000F0B50268254C264D264E274F274B4FF09C
:10A63000804CA04209D0604507D0A84205D0B04266
:10A6400003D0B84201D0984204D122F0700E4A687B
:10A6500042EA0E02A0421BD0604519D0A84217D092
:10A66000B04215D0B84213D0984211D0184DA8422C
:10A670000ED0184DA8420BD0174DA84208D0174D48
:10A68000A84205D0164DA84202D0164DA84203D1CB
:10A6900022F44075CA682A434D6922F080022A4399
:10A6A00002608A68C2620A688262A04201D098424F
:10A6B00001D10969016301214161F0BD0000014040
:10A6C0000004004000080040000C0040000401406D
:10A6D0000040014000440140004801400018004093
:10A6E000001C00400020004010B5806B0021C18597
:10A6F000C184FFF7D7FA10BD01680C3151E8002F73
:10A7000022F4907241E80023002BF5D10168143146
:10A7100051E8002F22F0010241E80023002BF5D17F
:10A72000016B012909D101680C3151E8002F22F099
:10A73000100241E80023002BF5D1202180F83E10C3
:10A7400000210163704708B590F83E10222901D01E
:10A75000022008BD82684FF480539A4201D10169FA
:10A7600021B1816A9A421BD04AB10AE00268816A2B
:10A770005268C2F308020A80816A891C08E00269F3
:10A7800072B10268526802F07F020A70816A491C45
:10A790008162C18D491E0904090CC18503D019E0ED
:10A7A00002685268F1E70168CA6822F02002CA60B4
:10A7B0000168CA6822F48072CA6001684A6922F09E
:10A7C00001024A61202180F83E10016B012903D06B
:10A7D000FFF716FD002008BD0021016301680C3160
:10A7E00051E8002F22F0100241E80023002BF5D1A0
:10A7F00001680A68D20602D50A6849680091818D0D
:10A80000FFF74FFAE6E7000070B5044600680169FB
:10A81000E26821F44051114301612169A068E269B5
:10A8200008436169114308432168CA6849F20C630F
:10A830009A430243CA6020684169A26921F44071C9
:10A840001143416131492068884202D03049884231
:10A8500002D1FEF729FE01E0FEF716FEE2690023B1
:10A86000192164253226B2F5004F626828D0A0FB7A
:10A870000101930F9200FDF749FD0146B0FBF5F091
:10A880006FF01802504301EB800006EB0010B0FBA4
:10A89000F5F000F0F002B1FBF5F002EB0012B1FBB5
:10A8A000F5F06FF01803584301EB800006EB001041
:10A8B000B0FBF5F000F00F0021681044886070BD17
:10A8C000A0FB010192185B41FDF720FD0146B0FBA2
:10A8D000F5F00201B1FBF5F06FF01803584301EBFE
:10A8E000800006EBC000B0FBF5F000F0F80002EBD2
:10A8F0004002B1FBF5F0584301EB800006EBC000CD
:10A90000B0FBF5F000F00700D6E7000000100140B2
:10A91000001401400148FFF7C7B90000C4F500006A
:10A920000148FFF7C1B9000008F600000148FFF731
:10A93000BBB900004CF60000FEE70907090E00282D
:10A9400004DB00F1E02080F80014704700F00F00F5
:10A9500000F1E02080F8141D7047FEF71FFCFFF7A0
:10A9600007FEFFF7EBFCFFF797FCFFF78DFDFFF706
:10A97000A7FDFFF7C5FDFFF747FCFFF769FCFFF7F1
:10A980002DFDFFF74BFDFFF75BFDFFF7C3FC00F06C
:10A990000EF8FEE701460020842900D0C81C70474D
:10A9A00010B500B9012000F023FB002010BD10B548
:10A9B00000F044FB002010BD7FB50D460446416900
:10A9C000B0F9080081B1A16971B1FFF7E3FFD4E9E3
:10A9D00005128DE80700D4E900102B46226900F02B
:10A9E00040FC039004B070BDFFF7D4FF03A9CDE98C
:10A9F0000001208A2B4682B2D4E9001000F004FC4A
:10AA0000012801D00020EDE70398EBE72DE9F041A4
:10AA1000184C0F460546E6682068001D00F020FA35
:10AA200038B9206890F82C100120884021698143B2
:10AA30002161681C07D137B12168BDE8F0410E489B
:10AA4000091D00F051BA20683544B54245602168BF
:10AA500005D2A06BBDE8F041091D00F02DBA606B76
:10AA6000091D00F029FAA06A854200D2A562BDE85E
:10AA7000F0810000B8B4000008B600002DE9F041F4
:10AA8000054600F03DFA2E4CA068401CA0602068EE
:10AA90002C4F10B1606940B32DE02560A0680128FB
:10AAA00029D1002606EB860007EB800000F0F6F9BE
:10AAB000761C072EF6D323488C3000F0EFF921489E
:10AAC000A03000F0EBF91F48B43000F0E7F91D4862
:10AAD000C83000F0E3F91B48DC3000F0DFF919481A
:10AAE0008C3060631430A06305E02068E96AC06AB6
:10AAF000884200D82560606A401C6062E96A0120D3
:10AB0000226988401043206101EB810007EB80003F
:10AB1000291D00F0E9F900F013FA606900280CD053
:10AB20002068E96AC06A884207D207494FF080501E
:10AB30000860BFF34F8FBFF36F8FBDE8F081000057
:10AB4000B8B400002CB5000004ED00E010B50446D8
:10AB500090F8510058B101280CD002280FD0502095
:10AB600080F31188BFF34F8FBFF36F8FFEE7206B29
:10AB700000F0FAF92046BDE8104000F0F5B910BD2C
:10AB800010484FF47051420706D0C01D0D4920F007
:10AB90000700411AC1F570510B4A00230144C2E974
:10ABA00000030839183A21F0070111604B600B606F
:10ABB0000B1AC0E9001393604FF0004053605061DE
:10ABC000704700001CB600000CB50000144E154C78
:10ABD000A6F1C8074FF08058DFF84C9012E000BF94
:10ABE00000F08EF9F068C568281D00F039F9A068FA
:10ABF000401EA0606068401E606000F0A1F9284619
:10AC0000FFF7A4FF60680028EAD138680128F9D965
:10AC1000C9F80080BFF34F8FBFF36F8FF2E70000DA
:10AC2000F4B50000B8B4000004ED00E02DE9F047F1
:10AC30009A46DDE9098481466FF00303206B03EB3C
:10AC400082021044089E20F00707780707D05020A2
:10AC500080F31188BFF34F8FBFF36F8FFEE700259E
:10AC600061B1002023180A5C83F834200A5C12B119
:10AC7000401C1028F6D384F8435001E084F8345087
:10AC8000072E00D30626E662C4E91165201D00F0F8
:10AC900010F904F1180000F00CF92461C6F1070066
:10ACA0006462A061E56484F85050524649463846D3
:10ACB00000F0C0F82060B8F1000F01D0C8F80040E3
:10ACC000BDE8F08730B5114900E011460A688242BC
:10ACD000FBD34B685C18844203D140681844486039
:10ACE000084643681C18944209D1084C183C246853
:10ACF000A24209D052681A4442600A68126802608F
:10AD0000814200D0086030BD0460F9E70CB5000056
:10AD10000648416B096829B1416BC968C96849682F
:10AD2000816270474FF0FF31FAE70000B8B40000CD
:10AD300008484068401C4FF0500080F3118804D050
:10AD4000BFF34F8FBFF36F8FFEE7BFF34F8FBFF39C
:10AD50006F8FFEE714B500002DE9F041054600278E
:10AD600000F0A2F9324E306808B9FFF709FF7069A8
:10AD700005424ED1C5B3083568070ED005F007006F
:10AD8000C0F108000544680707D0502080F31188FF
:10AD9000BFF34F8FBFF36F8FFEE72DB3706885420F
:10ADA00037D82348183001460C6801E020460C468D
:10ADB0006168A94202D221680029F7D131688C422A
:10ADC00027D007682168016060680837411B102997
:10ADD0000FD96019420708D0502080F31188BFF3C3
:10ADE0004F8FBFF36F8FFEE713E041606560FFF7A1
:10ADF00069FF61687068401A7060B268904200D262
:10AE0000B060706901430020C4E90001F068401C93
:10AE1000F06000F0B7FA780707D0502080F311886F
:10AE2000BFF34F8FBFF36F8FFEE73846BDE8F08169
:10AE3000F4B4000010B5031F4FF080741C601B1F9A
:10AE400021F001011960191F044B0B6014390A60CD
:10AE5000091F6FF0020244380A6010BD31AD0000D6
:10AE6000D0E9013201699A60D0E901235A604A6849
:10AE7000824201D182684A60002202610868401E55
:10AE80000860086870470000034B036003F154003A
:10AE900008608020106070471CF2000000F108017B
:10AEA0004FF0FF32C0E90112C16001610021016071
:10AEB000704700210161704730B50B685A1C02D001
:10AEC00000F1080202E0026904E0224654682568A5
:10AED0009D42FAD953684B6099608A60516008615D
:10AEE0000168491C016030BD42684A6093688B600C
:10AEF00093685960916008610168491C016070475E
:10AF0000502080F31188BFF34F8FBFF36F8F0A4932
:10AF10004868401C486001280CD10848006810F0BF
:10AF2000FF0F07D0502080F31188BFF34F8FBFF37E
:10AF30006F8FFEE77047000014B5000004ED00E0DD
:10AF40000849486828B1401E486001D180F3118843
:10AF50007047502080F31188BFF34F8FBFF36F8F7E
:10AF6000FEE7000014B5000070B500282AD0164D89
:10AF7000A0F1080460686969084207D1502080F395
:10AF80001188BFF34F8FBFF36F8FFEE722683AB18E
:10AF9000502080F31188BFF34F8FBFF36F8FFEE710
:10AFA0008843606000F080F8606869680844686001
:10AFB0002046FFF787FE2869401C2861BDE87040E5
:10AFC00000F0E0B970BD0000F4B400004FF0E020E4
:10AFD00000210161816105494FF47A720968B1FB72
:10AFE000F2F1491E416107210161704724B500005B
:10AFF00010B5020014D00F48006B38B1502080F318
:10B000001188BFF34F8FBFF36F8FFEE700F04CF84E
:10B0100000211046FFF7FAFC00F0B4F9002807D130
:10B0200005494FF080500860BFF34F8FBFF36F8F1B
:10B0300010BD0000B8B4000004ED00E010B586B00B
:10B040000024039405AA04A903A80494FFF71CFF95
:10B05000DDE903010094CDE9011000230EA11048A1
:10B06000059A00F0FEF80F490028C86211D0502060
:10B0700080F31188BFF34F8FBFF36F8F4FF0FF3016
:10B08000886201204861CC6006B0BDE8104000F045
:10B0900041B806B010BD000049444C450000000016
:10B0A000CDAB0000B8B400000248016B491C01633D
:10B0B00070470000B8B400001448016B11B10121C1
:10B0C000C16170470021C1610169B1FA81F1C1F12B
:10B0D0001F0101EB81020E4951F822306BB101EBE7
:10B0E000820101F108034A6852684A609A4201D11C
:10B0F00052684A60D16801607047502080F311881F
:10B10000BFF34F8FBFF36F8FFEE70000B8B40000AE
:10B110002CB500001CB537480168374A914207D169
:10B12000502080F31188BFF34F8FBFF36F8FFEE77E
:10B1300000683149491E884207D1502080F31188A8
:10B14000BFF34F8FBFF36F8FFEE72C490878019054
:10B15000FF20087008788DF800009DF800009DF829
:10B16000002000F0F000904207D0502080F31188BA
:10B17000BFF34F8FBFF36F8FFEE79DF80000204CA9
:10B1800000F0500020700720A06005E09DF800202E
:10B1900052008DF80020401E9DF800201206F5D4C4
:10B1A000A060032807D0502080F31188BFF34F8F91
:10B1B000BFF36F8FFEE74FF44070A06001980870F6
:10B1C0000C482030016841F470010160016841F0D1
:10B1D00070410160FFF7FAFE00206060FDF73AF869
:10B1E0000848016841F040410160FDF71FF8002068
:10B1F0001CBD000000ED00E071C20F4100E400E062
:10B2000014B5000034EF00E02DE9FF5F8346DDE96F
:10B210000E87994616468A469000FFF79DFD050069
:10B220001CD05420FFF798FD040014D000202563A3
:10B2300084F85100CDE90240CDE900874B46324603
:10B2400051465846FFF7F2FC2046FFF717FC012055
:10B2500004B0BDE8F09F2846FFF786FE4FF0FF30B0
:10B26000F6E7F0B585B0DDE90B640A9DA6B1DCB167
:10B27000542700972663022684F85160002604AF05
:10B28000CDE90246CDE90057FFF7D0FC2046FFF795
:10B29000F5FB049805B0F0BD502080F31188BFF392
:10B2A0004F8FBFF36F8FFEE7502080F31188BFF3FD
:10B2B0004F8FBFF36F8FFEE72DE9F0412F4C002633
:10B2C000206B28B1A069401CA0613046BDE8F08128
:10B2D000E5686D1CE56013D1606B006838B15020E3
:10B2E00080F31188BFF34F8FBFF36F8FFEE7606B62
:10B2F000A16B6163A063206A401C2062FFF708FD18
:10B30000A06ADFF87C80854209D3606B0068A0B139
:10B31000606BC068C7687868854211D2A0622068F7
:10B32000C06A00EB800158F82100012800D90126ED
:10B33000E0690028C9D00126C7E74FF0FF30EDE7EC
:10B34000381DFFF78DFDB86A18B107F11800FFF737
:10B3500087FDF96A0120226988401043206101EBD2
:10B36000810108EB8100391DFFF7BEFDF86A2168F5
:10B37000C96A8842C9D30126C7E70000B8B40000F3
:10B380002CB500002DE9F0472C4D00242746286BF2
:10B3900038B1FFF7B5FD286B401E2863286B40B11C
:10B3A00046E0502080F31188BFF34F8FBFF36F8FBB
:10B3B000FEE7A968224E0120D1B3A6F1B409804668
:10B3C0003068E8B1F068C46804F11800FFF748FD80
:10B3D000201DFFF745FDE06A2A6908FA00F11143D4
:10B3E000296100EB800109EB8100211DFFF77CFD45
:10B3F000E06A2968C96A8842E2D3C5F81C80DFE7A1
:10B400000CB1FFF785FCAC6944B14646FFF754FF29
:10B4100000B1EE61641EF9D10020A861E86938B17D
:10B420000849012738070860BFF34F8FBFF36F8FBC
:10B43000FFF786FD3846BDE8F0870000B8B400008D
:10B44000E0B5000004ED00E04FF04070E1EE100ABE
:10B4500070470006101600061016000090B4000099
:10B460003DA500000000000000000000800000007A
:10B4700000000000000000000000000000000000CC
:10B48000010203040607080900000000010203048A
:10B4900064656661756C745461736B002CB5000053
:10B4A0002CB50000A4830000C4810000010000004E
:10B4B000100000000000000000000000000000007C
:10B4C000000000000000000000000000000000007C
:10B4D000000000000000000000000000000000006C
:10B4E000000000000000000000000000000000005C
:10B4F000000000000000000000000000000000004C
:10B50000000000000000000000000000000000003B
:10B510000000000000000000AAAAAAAA0000000083
:0CB52000000000000024F4000000000007
:04000005000082CDA8
:00000001FF
